:100000000C9454010C94EE010C9471010C94710148
:100010000C9471010C94B4020C9471010C94710154
:100020000C9471010C9471010C943F030C947101B8
:100030000C9471010C9471010C9473010C94710176
:100040000C9471010C9471010C94F7060C947101DD
:100050000C9471010C940A030C9471010C947101BD
:100060000C9471010C947101050000000000050062
:10007000005F000005000700070005147F147F14CF
:1000800005242A7F2A12052313086462053649567F
:10009000205005080703000005001C224100050050
:1000A00041221C000514083E08140508083E0808F3
:1000B0000500B07000000508080808080500606029
:1000C0000000052010080402053E5149453E050088
:1000D000427F4000057249494946052141494D3357
:1000E000051814127F10052745454539053C4A4936
:1000F0004931054121110907053649494936054667
:100100004949291E05000014000005004034000084
:100110000508142241000514141414140541221476
:100120000800050201590906053E415D594E057C4E
:100130001211127C057F49494936053E4141412251
:10014000057F4141413E057F49494949057F0909EC
:100150000909053E41415173057F0808087F0500E4
:10016000417F4100052040413F01057F08142241A5
:10017000057F40404040057F020C027F057F040858
:10018000107F053E4141413E057F09090906053EB4
:100190004151215E057F0919294605264949493201
:1001A0000501017F0101053F4040403F051F204000
:1001B000201F053F4038403F0563140814630503C2
:1001C0000478040305615149454305007F4141001E
:1001D000050204081020050041417F0005040201CA
:1001E000020405404040404005070B000000052088
:1001F00054547840057F2844443805384444442802
:1002000005384444287F0538545454180500087EA6
:1002100009020518A4A49C78057F08040478050049
:10022000447D4000052040403D00057F10284400EB
:100230000500417F4000057C04780478057C0804B3
:10024000047805384444443805FC1824241805185B
:10025000242418FC057C080404080548545454243C
:100260000504043F4424053C4040207C051C2040FC
:10027000201C053C4030403C054428102844054CD7
:100280009090907C054464544C440500083641002D
:10029000050000770000050041360800050402044F
:1002A000080405007F417F0011241FBECFEFD8E076
:1002B000DEBFCDBF11E0A0E0B1E0E0E5F2E202C0B8
:1002C00005900D92AE34B107D9F725E0AEE4B1E068
:1002D00001C01D92AD36B207E1F70E945D060C9495
:1002E00026110C9400001F920F920FB60F9211244A
:1002F000CF92DF92EF92FF922F933F934F935F93B2
:100300006F937F938F939F93AF93BF93EF93FF93DD
:10031000C0905C01D0905D01E0905E01F0905F01C3
:100320008FEFC81AD80AE80AF80AC0925C01D09286
:100330005D01E0925E01F0925F01C701B60125E028
:1003400030E040E050E00E94A80D672B682B692B3D
:1003500019F481E080936301C701B60122E330E024
:1003600040E050E00E94A80D672B682B692B19F420
:1003700081E080936201C701B60124E630E040E0ED
:1003800050E00E94A80D672B682B692B19F481E0BF
:1003900080936101C701B60124EF31E040E050E0F5
:1003A0000E94A80D672B682B692B19F481E08093BC
:1003B0006001FF91EF91BF91AF919F918F917F91DC
:1003C0006F915F914F913F912F91FF90EF90DF9050
:1003D000CF900F900FBE0F901F9018951F920F9205
:1003E0000FB60F9211244F925F926F927F928F926D
:1003F0009F92AF92BF92CF92DF92EF92FF922F9394
:100400003F934F935F936F937F938F939F93AF939C
:10041000BF93CF93DF93EF93FF9380915B01853080
:1004200009F07EC040905C0150905D0160905E01DB
:1004300070905F0180915701909158014201881A94
:10044000990AA12CB12C60EE73E984E090E0A5013B
:1004500094010E94CA0DC0E0D1E03B832A83CC8086
:10046000DD80E12CF12CA5E3B2E0A70196010E940A
:10047000F80DA50194010E94A80D398328834092AC
:100480005701509258016092590170925A0110928E
:100490005B01C701B6010E94AD0C20E030E040EAEC
:1004A00050E40E943B0D26E53EE049E450E40E9402
:1004B0003B0D20E030E543EC57E40E940C0C298909
:1004C0003A894B895C890E94A00B698B7A8B8B8B54
:1004D0009C8B0E947E0CC0905301D0905401E09000
:1004E0005501F0905601C616D706E806F906C0F485
:1004F000AB01BC0180E090E00E94D210609111013C
:100500007091120180911301909114010E947E0C50
:100510006093530170935401809355019093560159
:1005200080915B018F5F80935B01FF91EF91DF9181
:10053000CF91BF91AF919F918F917F916F915F917B
:100540004F913F912F91FF90EF90DF90CF90BF9010
:10055000AF909F908F907F906F905F904F900F9093
:100560000FBE0F901F9018951F920F920FB60F920B
:1005700011242F933F934F935F936F937F938F93A8
:100580009F93AF93BF93EF93FF934C9911C06091EA
:10059000040170910501683C710550F46F5F7F4F55
:1005A000709305016093040184E090E00E94C41000
:1005B0004D9911C06091040170910501623071057F
:1005C00050F061507109709305016093040184E05B
:1005D00090E00E94C4104E9B04C084E480931501F7
:1005E00003C082E5809315014F9B03C080E5809393
:1005F0001501FF91EF91BF91AF919F918F917F91E5
:100600006F915F914F913F912F910F900FBE0F907F
:100610001F9018951F920F920FB60F9211242F93CF
:100620003F934F938F939F93EF93FF938091780025
:1006300090917900E0E0F1E097838683228533850D
:100640002D32314038F09695879596958795809311
:10065000B40009C08091000190910101459718F004
:1006600089E18093B400FF91EF919F918F914F9119
:100670003F912F910F900FBE0F901F9018951F92D2
:100680000F920FB60F9211242F933F934F935F93C6
:100690006F937F938F939F93AF93BF93EF93FF934A
:1006A0008091810086FF09C080918600909187002B
:1006B000909352018093510121C060918600709106
:1006C00087008091510190915201681B790BCB01F9
:1006D000A0E0B0E0BC01CD01660F771F881F991F15
:1006E000660F771F881F991F2AE330E040E050E033
:1006F0000E94A80D30930B0120930A01E1E8F0E07D
:10070000908180E489278083FF91EF91BF91AF9121
:100710009F918F917F916F915F914F913F912F9119
:100720000F900FBE0F901F901895CF93AC01FB0157
:100730008081882309F499C080915001813059F15A
:10074000823009F458C081118AC085B1817085B9A1
:1007500085B1806C85B9C5B19A01ADECBCEC0E9445
:10076000E90D9695879596958795969587959C0121
:10077000220F331F880F991F880F991F880F991F09
:10078000820F931F9A01281B390BC901880F8E71A4
:100790008C2B85B964C085B1817885B985B1806AB3
:1007A00085B9C5B19A01ADECBCEC0E94E90DAC0174
:1007B0005695479556954795569547959A010E94A7
:1007C000E90D9695879596958795969587959C01C1
:1007D000220F331F880F991F880F991F880F991FA9
:1007E000820F931F9A01281B390BC901880F8E7144
:1007F0008C2B85B934C085B1817085B985B180668F
:1008000085B9C5B19A013695279536952795ABE7F9
:10081000B4E10E94E90DAC01569547959A01ADEC03
:10082000BCEC0E94E90D96958795969587959695CF
:1008300087959C01220F331F880F991F880F991FDE
:10084000880F991F820F931F9A01281B390BC9012A
:10085000880F8E718C2B85B98FEF8093500180911A
:1008600050018F5F809350011082CF910895CF93F4
:10087000DF93EC0180E090E00E94BE100E94AD0C7E
:10088000698B7A8B8B8B9C8B84E090E00E94B610F6
:1008900090E09D838C8386E090E00E94B610888B68
:1008A000DF91CF9108950F931F93CF93DF93EC01C6
:1008B000FB019081992309F48FC08B0180914F0136
:1008C000813021F130F08230A1F1833009F45DC034
:1008D00077C080917800909179009F838E832A85DC
:1008E0003B852D32314038F09695879596958795C2
:1008F0008093B40007C088819981459718F089E1F9
:100900008093B40081E480937C005AC020917800E9
:1009100030917900A4E6B0E00E94E90D2FEF33E0BA
:1009200040E050E00E94A80D2E8782E480937C0076
:1009300047C0E8E7F0E020813181A5E2BAE00E94FB
:10094000E90D408151812FEF33E0241B350B40E04E
:1009500050E00E94A80D23502F8780E480937C00F4
:1009600080914E01811106C09F85988B8F5F809387
:100970004E0105C08F859889981708F4888B68897F
:1009800086E090E00E94C4101BC083E480937C004A
:10099000209178003091790040E050E068E17CE9F6
:1009A0008FE090E00E94CA0DCA01B901685E7340F1
:1009B000810991090E94AF0C0E947E0C798768879B
:1009C00080914F01833020F48F5F80934F0102C0EC
:1009D00010924F01F8011082DF91CF911F910F917A
:1009E00008952F923F924F925F926F927F928F92D3
:1009F0009F92AF92BF92CF92DF92EF92FF920F93AE
:100A00001F93CF93DF93CDB7DEB7A8970FB6F894B7
:100A1000DEBF0FBECDBF6596EEADFFAD65978081A1
:100A2000882309F426C127968FAD27978F932696A2
:100A30008FAD26978F9306E111E01F930F934E0120
:100A400023E2820E911C9F928F920E94030E2396A6
:100A50008FAD23978F9322968FAD22978F931F93FD
:100A60000F937E013FE1E30EF11CFF92EF920E9493
:100A7000030E21968FAD21978F938FAD8F931F9388
:100A80000F932E0181E1480E511C5F924F920E94FC
:100A9000030E62966CAD7DAD8EAD9FAD62970E94E8
:100AA0007E0C7F936F931F930F931E0199E0290E85
:100AB000311C3F922F920E94030E29968FAD2997E9
:100AC0008F9328968FAD28978F931F930F939E0136
:100AD0002F5F3F4F39013F932F930E94030E2C96B7
:100AE0008FAD2C971F928F931F930F936E013BE155
:100AF000C30ED11CDF92CF920E94030E2D968FADB4
:100B00002D970FB6F894DEBF0FBECDBF1F928F9307
:100B10001F930F935E0137E1A30EB11CBF92AF92FA
:100B20000E94030E63968FAD63971F928F931F935E
:100B30000F93CE0187969F938F930E94030E0E947E
:100B40000D0A61E081E00E94A30789E191E00E9423
:100B5000510B0FEF2AE042E36AE081E00E940C09AA
:100B600061E08BE40E94A307C4010E94510B6FE077
:100B700084E60E94A307C5010E94510B82E291E026
:100B80000E94510B63E084E60E94A307C6010E9405
:100B9000510B84E291E00E94510B29E14EE761E0A4
:100BA00082E60E949F0964E281E00E94A30787E237
:100BB00091E00E94510BC7010E94510B81E391E02B
:100BC0000E94510B64E38EE60E94A30785E391E047
:100BD0000E94510B2EE34DE760E38CE60E949F09D3
:100BE0006AE181E00E94A30788E391E00E94510B33
:100BF000C3010E94510B81E391E00E94510B60E11F
:100C000081E00E94A307C2010E94510B80E491E0A1
:100C10000E94510B64E384E10E94A307C1010E947A
:100C2000510B85E491E00E94510B2EE346E460E312
:100C30008AE00E949F092B968EAD9FAD2B970FB631
:100C4000F894DEBF0FBECDBF019749F464E28EE693
:100C50000E94A30789E491E00E94510B08C064E25E
:100C60008EE60E94A3078BE491E00E94510B0E9444
:100C70007507A8960FB6F894DEBF0FBECDBFDF9103
:100C8000CF911F910F91FF90EF90DF90CF90BF9089
:100C9000AF909F908F907F906F905F904F903F901C
:100CA0002F9008959093C5008093C40088E98093A5
:100CB000C1008EE08093C20008958EEF84B98AB19E
:100CC00083708AB980E38BB991E095B987B180646C
:100CD00087B987B1877F87B982E0809369009DBB20
:100CE00094E09093680020EF20936D0084BD23E092
:100CF00025BD29EF27BD80936E0083E4809381009A
:100D000080E280936F0023E22093B0009093B100C3
:100D100090E89093B40090E490937C0097EE9093C9
:100D20007A0010927B0080937E0087E690E00E941C
:100D3000520680E091E00E94370478940E94AC074C
:100D400020E048E065E088E690E00E94210A0E94E9
:100D5000110A63E671E080910001909101010E9407
:100D6000950380E691E09F938F938DB79EB746974A
:100D70000FB6F8949EBF0FBE8DBFADB7BEB711962C
:100D800086E1E0E0F1E001900D928A95E1F70E94A2
:100D9000F10462E671E080E091E00E9453048DB7B7
:100DA0009EB748960FB6F8949EBF0FBE8DBF4B9965
:100DB00007C081E090E090930D0180930C0104C086
:100DC00010920D0110920C0180910801909109017F
:100DD000853F914018F48FEF88B9BBCF18B8B9CFD1
:100DE0009091C00095FFFCCF8093C60008951F929C
:100DF0000F920FB60F9211242F933F934F935F934F
:100E00006F937F938F939F93AF93BF93CF93EF9302
:100E1000FF93C091C600C43621F4809110010E9456
:100E2000F006CC3611F410921001FF91EF91CF91A2
:100E3000BF91AF919F918F917F916F915F914F91F2
:100E40003F912F910F900FBE0F901F9018956695B0
:100E500066956695E82FF0E080E8689FE00DF11D4B
:100E60001124E359FE4F4083089566956695669573
:100E7000E82FF0E080E8689FE00DF11D1124E359B0
:100E8000FE4F808108950F931F93CF93DF93C82F58
:100E90008B01D42F0E94810B88E70E94930B8C2F2B
:100EA0000E94930BC0E007C0F801EC0FF11D808198
:100EB0000E94930BCF5FCD17B8F30E948B0BDF918D
:100EC000CF911F910F910895CF93DF931F92CDB7CC
:100ED000DEB7898341E0BE016F5F7F4F80E00E94F3
:100EE00043070F90DF91CF910895CF9381E20E9445
:100EF000640780E00E9464078FE70E94640782E233
:100F00000E94640780E00E94640787E00E946407F3
:100F1000C0E00BC080E1C89FB001112463597E4F2F
:100F200040E180E40E944307CF5FC03498F3CF9143
:100F30000895882314F0809364010895803410F498
:100F4000809365010895CF93C62F0E9499078C2F37
:100F50000E949E07CF9108950E94680B8EEA0E941E
:100F6000640785ED0E94640780EF0E94640788EAA9
:100F70000E9464078FE30E94640783ED0E94640768
:100F800080E00E9464078DE80E94640784E10E946B
:100F9000640780E40E94640780E20E94640780E0A6
:100FA0000E94640781EA0E94640788EC0E9464073B
:100FB0008AED0E94640782E10E94640781E80E9432
:100FC00064078FEF0E94640789ED0E94640781EF38
:100FD0000E9464078BED0E94640780E20E94640710
:100FE00084EA0E94640786EA0E9464078EE20E94F7
:100FF00064078FEA0E94640760E080E00E94A30714
:10100000E4E6F1E086EA8283178216821582118275
:1010100010820895FF920F931F93CF93DF93C62FF3
:10102000142F0E94A307E4E6F1E0F180D0816F2D38
:101030008D2F0E9435071F3F79F4C77001E010E043
:1010400020E030E004C0000F111F221F331FCA959B
:10105000D2F7482F402B0FC0C77001E010E020E00E
:1010600030E004C0000F111F221F331FCA95D2F7B2
:101070000095402F48236F2D8D2F0E942707DF9169
:10108000CF911F910F91FF9008956F927F928F9251
:101090009F92AF92BF92CF92DF92EF92FF920F9307
:1010A0001F93CF93DF9388230CF4A7C044230CF441
:1010B000A4C0603408F0A1C0203408F09EC0261BF4
:1010C00099249394920E481BD1E0D40F962F9770D9
:1010D000162F191BE92CF12C28E030E0291B3109CF
:1010E000E216F3067CF428E030E02E193F094FEFBA
:1010F00050E06A0102C0D594C7942A95E2F72C2DDE
:10110000B92C04C028E0B22EB91A2FEFA82EC22E97
:10111000D12C02C0CC0CDD1C9A95E2F76C2C612F0F
:101120000E94A307812C19C0E4E6F1E07180C08120
:10113000672D8C2F0E9435070F3F19F4462D482B41
:1011400003C04C2D4095482381E08C0F80936401AF
:10115000672D8C2F0E94270783948D1628F316C0C5
:1011600088E0B80E185F612F8A2D0E94A307C0E0A7
:101170000BC0E4E6F1E06181808191E0980F9083FB
:10118000402F0E942707CF5FCD1798F38B2D90E05B
:101190009C01285F3F4FE216F30614F7B91468F577
:1011A000E81AF90A8FEF90E002C0880F991FEA94BD
:1011B000E2F7E82EE09468E0610F8A2D0E94A30711
:1011C00010E019C0E4E6F1E0F180C0816F2D8C2FB2
:1011D0000E9435070F3F19F44E2D482B03C04E2DAA
:1011E0004095482381E08C0F809364016F2D8C2FF4
:1011F0000E9427071F5F1D1728F3DF91CF911F91D2
:101200000F91FF90EF90DF90CF90BF90AF909F90A5
:101210008F907F906F9008958F929F92AF92BF9220
:10122000CF92DF92EF92FF920F931F93CF93DF93B2
:10123000C82FD62F142F88230CF474C044230CF429
:1012400071C0603408F06EC0203408F06BC08413A5
:101250000AC0261710F4D22F262F4C2F6D2F8C2F5B
:101260000E9445085FC062130EC0481748F4C42F9F
:10127000182F06C0402F6D2F8C2F0E940A08CF5FB9
:101280001C17C0F74FC0261728F4C62ED12CC21A3F
:10129000D10804C0C22ED12CC61AD1081C1728F4BC
:1012A000AC2EB12CA11AB10804C0A12EB12CAC1ADD
:1012B000B108AC14BD0434F4812F122F282F8C2FC9
:1012C000CD2FD82F1C1730F48D2FD22F282F8C2FF5
:1012D000C12F182F912E9C1AD21718F4E22EED1A56
:1012E00002C0ED2EE21AF92CF694D21718F48824D5
:1012F000839416C088248A9413C0AC14BD0434F4BB
:10130000402F6C2F8D2F0E940A0805C0402F6D2F93
:101310008C2F0E940A08FE1812F4D80DF90CCF5F2A
:101320001C1758F7DF91CF911F910F91FF90EF900D
:10133000DF90CF90BF90AF909F908F900895DF92F5
:10134000EF92FF920F931F93CF93DF9388230CF4B8
:1013500045C044230CF442C0603408F03FC0203440
:10136000E8F5D02F122FD42EF62EE82E481718F0BD
:10137000042FC82F09C0082FC42F06C04D2F6F2D72
:101380008C2F0E940A08CF5F0C17C0F7DE1418F0EC
:101390000D2DCE2D09C00E2DCD2D06C04D2F612F48
:1013A0008C2F0E940A08CF5F0C17C0F71F1518F08A
:1013B000212F6F2D02C02F2D612F0D2F4E2D8E2D21
:1013C0000E9445081F1518F0212F6F2D02C02F2DE8
:1013D000612F0D2F4D2D8D2D0E944508DF91CF914E
:1013E0001F910F91FF90EF90DF9008951F93CF937F
:1013F000DF93182FD0E00BC0412F6D2F8C2F0E9450
:101400002707CF5F01C0C0E0CC23B4F7D85FD0344A
:10141000D0F3DF91CF911F91089580E00E94F609EB
:10142000089580916601873A21F486EA80936601E7
:1014300003C087EA80936601809166010E94640779
:1014400008956623E4F04034D0F42230C0F4E4E69A
:10145000F1E0948383836583468350E041505109D2
:10146000CA0199230CF407969595879595958795CC
:1014700095958795E4E6F1E08F5F8783208708954F
:101480004F925F926F927F928F929F92AF92BF9294
:10149000CF92DF92EF92FF920F931F93CF93DF9340
:1014A000A4E6B1E05C9011964C901197805215968D
:1014B0009C91159717962C911797929F9001112444
:1014C0002F5F3F4F829FA001839F500D11241396E1
:1014D000ED91FC9114975A018FEFA81AB80AE40F06
:1014E000F51F7490842D8770982E642C812C5FC01A
:1014F000662D852D0E94A3077501E80CF11C67017C
:1015000081E0C81AD10810E041C080916701909134
:101510006801FC01EE0DFF1D2491492D50E030E0E3
:10152000092C02C0220F331F0A94E2F7022F8820F1
:10153000A1F0FC01EC0DFD1DE49188E090E0841B1E
:10154000950BF0E002C0F595E7958A95E2F70E2F2E
:10155000022B80916B01C80ED11C80916C018130EF
:1015600039F4E4E6F1E0618180810E943507082BBF
:10157000C4E6D1E06981888191E0980F9883402F7B
:101580000E9427078F81E80EF11C1F5F171508F4D2
:10159000BCCF80916C01811107C0E4E6F1E040E02E
:1015A000618180810E94270788E0680E8394809182
:1015B0006B01881608F49CCF242D26952695269538
:1015C00030E080916A0190E0840D911D0197AC019B
:1015D00012F4495F5F4F5595479555954795559539
:1015E00047952417350709F445C08FE3861508F49D
:1015F00041C0662D852D0E94A307A80CB11C81E077
:10160000A81AB10800E029C0C4E6D1E0F980188129
:101610006F2D812F0E943507EB81FC81EA0DFB1DA8
:10162000449128E030E02919310950E002C0559575
:1016300047952A95E2F7482B9885913009F4482B75
:10164000C4E6D1E081E0810F88836F2D812F0E9455
:1016500027078F81A80EB11C0F5F0715A8F2809194
:101660006C01811107C0E4E6F1E040E06181808116
:101670000E942707852D870D642D8F5F0E94A30789
:10168000DF91CF911F910F91FF90EF90DF90CF905E
:10169000BF90AF909F908F907F906F905F904F9092
:1016A0000895CF93DF93EC010DC0E4E6F1E0908163
:1016B000258130E0290F311D2038310534F4219681
:1016C0000E94400A88818111F0CFDF91CF91089567
:1016D00087B1806187B987B1806287B988B180613D
:1016E00088B988B1806288B91092B90088E4809383
:1016F000B80084E08093BC0008958091B900887F91
:10170000089584EA8093BC008091BC008823E4F7AC
:101710000E947D0B089585ED8093BC008091BC00F4
:1017200084FDFCCF08958093BB0084E88093BC00C7
:101730008091BC008823E4F70E947D0B08955058E7
:10174000BB27AA270E94B70B0C94010D0E94F30C33
:1017500038F00E94FA0C20F039F49F3F19F426F477
:101760000C94F00C0EF4E095E7FB0C94EA0CE92FD6
:101770000E94120D58F3BA17620773078407950782
:1017800020F079F4A6F50C94340D0EF4E0950B2EB0
:10179000BA2FA02D0B01B90190010C01CA01A001C3
:1017A0001124FF27591B99F0593F50F4503E68F11E
:1017B0001A16F040A22F232F342F4427585FF3CF5F
:1017C000469537952795A795F0405395C9F77EF430
:1017D0001F16BA0B620B730B840BBAF09150A1F079
:1017E000FF0FBB1F661F771F881FC2F70EC0BA0FFF
:1017F000621F731F841F48F4879577956795B79587
:10180000F7959E3F08F0B0CF9395880F08F0992781
:10181000EE0F9795879508950E94200C0C94010D6A
:101820000E94FA0C58F00E94F30C40F029F45F3F3C
:1018300029F00C94EA0C51110C94350D0C94F00C19
:101840000E94120D68F39923B1F3552391F3951B70
:10185000550BBB27AA2762177307840738F09F5FD1
:101860005F4F220F331F441FAA1FA9F335D00E2E3E
:101870003AF0E0E832D091505040E695001CCAF7AB
:101880002BD0FE2F29D0660F771F881FBB1F26176E
:1018900037074807AB07B0E809F0BB0B802DBF0145
:1018A000FF2793585F4F3AF09E3F510578F00C9414
:1018B000EA0C0C94350D5F3FE4F3983ED4F3869523
:1018C00077956795B795F7959F5FC9F7880F911D35
:1018D0009695879597F90895E1E0660F771F881F21
:1018E000BB1F621773078407BA0720F0621B730BD4
:1018F000840BBA0BEE1F88F7E09508950E941A0D2D
:1019000088F09F5798F0B92F9927B751B0F0E1F0C0
:10191000660F771F881F991F1AF0BA95C9F714C070
:10192000B13091F00E94340DB1E008950C94340D63
:10193000672F782F8827B85F39F0B93FCCF38695A9
:1019400077956795B395D9F73EF490958095709506
:1019500061957F4F8F4F9F4F0895E89409C097FB83
:101960003EF490958095709561957F4F8F4F9F4F76
:101970009923A9F0F92F96E9BB279395F6958795BA
:1019800077956795B795F111F8CFFAF4BB0F11F47D
:1019900060FF1BC06F5F7F4F8F4F9F4F16C0882324
:1019A00011F096E911C0772321F09EE8872F762F5A
:1019B00005C0662371F096E8862F70E060E02AF09B
:1019C0009A95660F771F881FDAF7880F9695879587
:1019D00097F9089597F99F6780E870E060E00895AF
:1019E0009FEF80EC089500240A9416161706180637
:1019F0000906089500240A94121613061406050613
:101A00000895092E0394000C11F4882352F0BB0FA3
:101A100040F4BF2B11F460FF04C06F5F7F4F8F4F06
:101A20009F4F089557FD9058440F551F59F05F3F41
:101A300071F04795880F97FB991F61F09F3F79F0F0
:101A400087950895121613061406551FF2CF469572
:101A5000F1DF08C0161617061806991FF1CF8695F4
:101A60007105610508940895E894BB2766277727D8
:101A7000CB0197F908950E944E0D0C94010D0E9420
:101A8000F30C38F00E94FA0C20F0952311F00C941E
:101A9000EA0C0C94F00C11240C94350D0E94120DDC
:101AA00070F3959FC1F3950F50E0551F629FF001B1
:101AB000729FBB27F00DB11D639FAA27F00DB11DCA
:101AC000AA1F649F6627B00DA11D661F829F222753
:101AD000B00DA11D621F739FB00DA11D621F839FDA
:101AE000A00D611D221F749F3327A00D611D231FB0
:101AF000849F600D211D822F762F6A2F11249F57FE
:101B000050409AF0F1F088234AF0EE0FFF1FBB1F00
:101B1000661F771F881F91505040A9F79E3F5105BF
:101B200080F00C94EA0C0C94350D5F3FE4F3983E82
:101B3000D4F3869577956795B795F795E7959F5F69
:101B4000C1F7FE2B880F911D9695879597F90895FB
:101B5000A1E21A2EAA1BBB1BFD010DC0AA1FBB1FB1
:101B6000EE1FFF1FA217B307E407F50720F0A21B23
:101B7000B30BE40BF50B661F771F881F991F1A9490
:101B800069F760957095809590959B01AC01BD01BA
:101B9000CF010895052E97FB1EF400940E94E10DDD
:101BA00057FD07D00E94A80D07FC03D04EF40C94FB
:101BB000E10D50954095309521953F4F4F4F5F4F28
:101BC000089590958095709561957F4F8F4F9F4FA9
:101BD0000895A29FB001B39FC001A39F700D811D06
:101BE0001124911DB29F700D811D1124911D089526
:101BF0000E94E90DA59F900DB49F900DA49F800DAC
:101C0000911D11240895AEE0B0E0E9E0FEE00C94EF
:101C1000FD100D891E8986E08C831A8309838FEF5E
:101C20009FE79E838D83AE01475E5F4F6F89788DFE
:101C3000CE0101960E94250EEF81F885E00FF11F7D
:101C400010822E96E4E00C941911ABE0B0E0EBE2C8
:101C5000FEE00C94EF106C017B018A01FC011782FD
:101C60001682838181FFCCC1CE0101963C01F60131
:101C70009381F70193FD859193FF81917F018823E3
:101C800009F4BAC1853239F493FD859193FF8191AE
:101C90007F01853229F4B60190E00E941C10E7CF45
:101CA000912C212C312CFFE1F315D8F08B3279F0F7
:101CB00038F4803279F08332A1F4232D20611DC0E5
:101CC0008D3261F0803369F4232D216016C0832D9D
:101CD0008260382EE32DE4603E2E2AC0F32DF8609A
:101CE0001DC037FC2DC020ED280F2A3040F08E3269
:101CF000B9F436FC81C1232D2064322E19C036FE82
:101D000006C08AE0989E200D1124922E11C0EAE0B0
:101D10002E9E200D1124222EF32DF0623F2E08C09E
:101D20008C3621F4832D8068382E02C0883641F429
:101D3000F70193FD859193FF81917F018111B3CFCD
:101D4000982F9F7D9554933028F40C5F1F4F9FE38D
:101D500099830DC0833631F0833771F0833509F0F4
:101D600059C021C0F801808189830E5F1F4F8824EC
:101D70008394912C530113C02801F2E04F0E511CA3
:101D8000F801A080B18036FE03C0692D70E002C06A
:101D90006FEF7FEFC5010E9411104C018201F32DFE
:101DA000FF773F2E16C0280122E0420E511CF80199
:101DB000A080B18036FE03C0692D70E002C06FEFD5
:101DC0007FEFC5010E9406104C01F32DF0683F2EF5
:101DD000820133FC1BC0822D90E088169906B0F476
:101DE000B60180E290E00E941C102A94F4CFF50125
:101DF00037FC859137FE81915F01B60190E00E942A
:101E00001C1021102A9421E0821A91088114910457
:101E100071F7E8C0843611F0893641F5F80137FED4
:101E200007C060817181828193810C5F1F4F08C060
:101E300060817181072E000C880B990B0E5F1F4F7C
:101E4000F32DFF763F2E97FF09C0909580957095F2
:101E500061957F4F8F4F9F4FF0683F2E2AE030E013
:101E6000A3010E945810882E861845C0853731F48A
:101E7000232D2F7EB22E2AE030E025C0932D997FAE
:101E8000B92E8F36C1F018F4883579F0B5C0803797
:101E900019F0883721F0B0C0E92FE061BE2EB4FE02
:101EA0000DC0FB2DF460BF2E09C034FE0AC0292FDF
:101EB0002660B22E06C028E030E005C020E130E008
:101EC00002C020E132E0F801B7FE07C060817181F5
:101ED000828193810C5F1F4F06C06081718180E019
:101EE00090E00E5F1F4FA3010E945810882E8618A5
:101EF000FB2DFF773F2E36FE0DC0232D2E7FA22E09
:101F0000891458F434FE0BC032FC09C0832D8E7E38
:101F1000A82E05C0B82CA32C03C0B82C01C0B92C26
:101F2000A4FE0FC0FE01E80DF11D8081803321F475
:101F30009A2D997EA92E09C0A2FE06C0B394B3942F
:101F400004C08A2D867809F0B394A3FC11C0A0FECA
:101F500006C0B21488F4280C922C9B180EC0B21440
:101F600060F4B60180E290E00E941C10B394F7CFB9
:101F7000B21418F42B1802C0982C212CA4FE10C007
:101F8000B60180E390E00E941C10A2FE17C0A1FCE5
:101F900003C088E790E002C088E590E0B6010CC07D
:101FA0008A2D867859F0A1FE02C08BE201C080E242
:101FB000A7FC8DE2B60190E00E941C10891438F451
:101FC000B60180E390E00E941C109A94F7CF8A94A7
:101FD000F301E80DF11D8081B60190E00E941C1014
:101FE0008110F5CF222009F442CEB60180E290E0C4
:101FF0000E941C102A94F6CFF6018681978102C0B8
:102000008FEF9FEF2B96E2E10C940B11FC010590F2
:10201000615070400110D8F7809590958E0F9F1FEA
:102020000895FC016150704001900110D8F780952F
:1020300090958E0F9F1F08950F931F93CF93DF935B
:10204000FB01238121FD03C08FEF9FEF2CC022FFF6
:1020500016C046815781248135814217530744F4C5
:10206000A081B1819D012F5F3F4F318320838C93ED
:10207000268137812F5F3F4F3783268314C08B0122
:10208000EC01FB010084F185E02D0995892BE1F637
:10209000D80116968D919C911797019617969C934F
:1020A0008E931697CE01DF91CF911F910F910895D6
:1020B000FA01AA27283051F1203181F1E8946F9379
:1020C0006E7F6E5F7F4F8F4F9F4FAF4FB1E03ED01F
:1020D000B4E03CD0670F781F891F9A1FA11D680FBD
:1020E000791F8A1F911DA11D6A0F711D811D911DF0
:1020F000A11D20D009F468943F912AE0269F112465
:102100003019305D3193DEF6CF010895462F4770C8
:10211000405D4193B3E00FD0C9F7F6CF462F4F7023
:10212000405D4A3318F0495D31FD4052419302D081
:10213000A9F7EACFB4E0A695979587957795679527
:10214000BA95C9F700976105710508959B01AC0127
:102150000A2E06945795479537952795BA95C9F74E
:10216000620F731F841F951FA01D0895F999FECF5C
:1021700092BD81BDF89A992780B50895A6E1B0E097
:1021800044E050E00C94E110262FF999FECF1FBADD
:1021900092BD81BD20BD0FB6F894FA9AF99A0FBE90
:1021A00001960895242F0E94C510252F0E94C51066
:1021B0000C94DA100E94C410272F0C94C510DC0177
:1021C000CB01FC01F999FECF06C0F2BDE1BDF89A42
:1021D000319600B40D9241505040B8F708952F92B7
:1021E0003F924F925F926F927F928F929F92AF92A7
:1021F000BF92CF92DF92EF92FF920F931F93CF93F4
:10220000DF93CDB7DEB7CA1BDB0B0FB6F894DEBF8A
:102210000FBECDBF09942A88398848885F846E84B0
:102220007D848C849B84AA84B984C884DF80EE80FA
:10223000FD800C811B81AA81B981CE0FD11D0FB603
:10224000F894DEBF0FBECDBFED010895F894FFCF27
:10225000000000004100000000000000000000003D
:102260000000002041442575004C41534420434167
:1022700052004300202500442E20506E65753A2000
:102280000020636D00205000536F6E61723A200091
:0E2290002072706D00206B6D00410046000052
:00000001FF
